S012000054696D657220696E74722E7372656334
S11300000C942A000C9434000C9434000C943400A6
S11300100C9434000C9434000C9434000C9434008C
S11300200C9434000C9434000C9434000C9436007A
S11300300C9434000C9434000C9434000C9434006C
S11300400C9434000C9434000C9434000C9434005C
S11300500C94340011241FBECFE5D8E0DEBFCDBF21
S11300600E944A000C9493000C9400001F920F927B
S11300700FB60F9211248F939F9395B381E0892734
S113008085BB82EB82BF9F918F910F900FBE0F9023
S11300901F90189587E08ABB81E084BB11BA929ABD
S11300A089BF80EA82BF85E083BF7894D89A2FEF16
S11300B083EC99E0215080409040E1F700C00000BB
S11300C0D8982FEF83EC99E0215080409040E1F7DD
S11300D000C00000D99A2FEF83EC99E021508040B2
S11300E09040E1F700C00000D9982FEF83EC99E02D
S11300F0215080409040E1F700C00000DA9A2FEFD1
S113010083EC99E0215080409040E1F700C000006A
S1130110DA982FEF83EC99E0215080409040E1F78A
S10D012000C00000C3CFF894FFCF25
S9030000FC
